:020000040000FA
:10000000BF280830920093002308840021081F199C
:100010004E201F1D502022088400841720088004D1
:100020008C018D0112080319BA289F184720220855
:10003000840000082005FF3E8C0D8D0D9F1C47207D
:10004000920B152813081F1879280C08BA280830B5
:1000500092002308840021081F194E201F1D5020E4
:100060002208840084172009800512080319BA2881
:100070001F187920220884008D0C8C0C00082004A5
:10008000031C200680004720920B3A28BA28230838
:1000900084002108800600008006080080045328A0
:1000A000FF3A80055428FF3A84178005BA288F014B
:1000B0008E00FF308E07031C8F07031CBA28033005
:1000C0008D00DF30652059288D01E83E8C008D09B8
:1000D000FC30031C6E288C0703186B288C07640007
:1000E0008D0F6B280C1874288C1C78280000782839
:1000F00008008E018F0180288D0C8C0C8E0D8F0DC9
:10010000FF3E03187C280F088D000E088C00BA28CB
:1001100091019001103092000D0D900D910D0E087F
:1001200090020F08031C0F0F910203189E280E085F
:1001300090070F0803180F0F910703108C0D8D0DFA
:10014000920B8C280C08BA28103094008D018C0179
:10015000930C920C031CB2280E088C070F0803188E
:100160000F0F8D078D0C8C0C910C900C940BA82804
:100170001008BA288313031383126400080083163F
:10018000860185018312A401A5012408A800250881
:10019000A90028088C0029088D000A308E008F01E4
:1001A00088201008AF002F08A802031CA903280804
:1001B0008C0029088D000A308E008F018820A8004D
:1001C0000D08A90028088C0029088D000A308E002F
:1001D0008F0188201008B0003008A802031CA90372
:1001E00028088C0029088D000A308E008F01882095
:1001F000A8000D08A90028088C0029088D000A30E5
:100200008E008F0188201008B1003108A802031C5D
:10021000A90328088C0029088D000A308E008F0160
:100220008820A8000D08A90028088C0029088D0046
:100230000A308E008F0188201008B2003208A80210
:10024000031CA90328088C0029088D000A308E00A1
:100250008F018820A8000D08A90028088C00290813
:100260008D000A308E008F0188201008B300051120
:100270002F080F3C031C56293F21AA0056290130A4
:100280008A002F08463E03188A0A82003F3406344B
:100290005B344F3466346D347D3407347F346F34CF
:1002A00077347C3439345E347934713430080F3C1F
:1002B000031C74295D21AB00742901308A003008C9
:1002C000643E03188A0A82003F3406345B344F349C
:1002D00066346D347D3407347F346F3477347C3446
:1002E00039345E347934713431080F3C031C92295F
:1002F0007B21AC00922901308A003108823E03182C
:100300008A0A82003F3406345B344F3466346D34DD
:100310007D3407347F346F3477347C3439345E3441
:100320007934713432080F3C031CB0299921AD0097
:10033000B02901308A003208A03E03188A0A8200E0
:100340003F3406345B344F3466346D347D340734C7
:100350007F346F3477347C3439345E34793471349B
:1003600033080F3C031CCE29B721AE00CE29013043
:100370008A003308BE3E03188A0A82003F340634DE
:100380005B344F3466346D347D3407347F346F34DE
:1003900077347C3439345E34793471340530A200DA
:1003A0000130A0000530A3000230A10001309F0001
:1003B0002A088C008D0127202B088C008D01272016
:1003C0002C088C008D0127202D088C008D01272002
:1003D0002E088C008D01272005150611323064206F
:1003E0000615323064200630A2000130A00006302D
:1003F000A3000230A1009F010120B4000630A2003A
:100400000130A0000630A3000230A1009F010120AE
:10041000B5003508920093018E0101308F00A420B1
:10042000A6001108A70034082607A400270803180F
:0A043000013EA5000A305720C52840
:02400E00FD3F74
:00000001FF
